:100000000C942A000C9400040C9429040C945204BF
:100010000C9447000C9447000C949A050C944805E6
:100020000C9471050C941F050C9447000C94470028
:100030000C9447000C9447000C9447000C94470024
:100040000C9447000C9447000C9447000C94470014
:100050000C94470011241FBECFE5D8E0DEBFCDBF12
:1000600010E0A0E6B0E0ECEAFBE002C005900D92E3
:10007000A63DB107D9F720E0A6EDB0E001C01D9282
:10008000A63EB207E1F70E941E020C94D4050C9420
:1000900000009091D60081E089278093D6000895D2
:1000A00062E083E00E947B0462E083E00E94AE0491
:1000B00080E30E94A50480EC0E94110580E30E9469
:1000C000180560E080E00E94100280E690E00E9447
:1000D000FA0169E470E080E00E94F703089581303E
:1000E00099F42FEF84E39CE0215080409040E1F7A9
:1000F00000C000008091D7008F5F8093D7008F30C1
:1001000061F41092D7000895811107C00E94CF00BA
:1001100081508F3010F48093D70008958091D600DD
:100120000E946F008091D70090E0FC01EE0FFF1F4E
:100130008E0F9F1FFC01EF58FF4F80810E94C30567
:100140008091D70090E0FC01EE0FFF1F8E0F9F1FE4
:10015000FC01EF58FF4F818190E00E94C60580911D
:10016000D70090E0FC01EE0FFF1F8E0F9F1FFC01D8
:10017000EF58FF4F828190E00E94CD050895CF9304
:10018000C0E009C0EC2FF0E0E253FF4F61E0808156
:100190000E943A03CF5FC430A8F3CF910895BF9275
:1001A000CF92DF92EF92FF920F931F93CF93DF9343
:1001B0000F2EF2E5BF2EF02DD12C2FC0ED2CF12CFF
:1001C000F701E253FF4FC08060E08C2D0E943A039C
:1001D000D0E01CC00D2F10E0F801EE52FF4FC0819F
:1001E0008C2F0E94BF03811110C0C701880F991F77
:1001F000880F991F82549F4FFC01E00FF11FB080C0
:100200008C2F0E94BF038823D9F3DF5FD43010F313
:1002100061E08C2D0E943A03D39483E08D1570F633
:100220008B2DDF91CF911F910F91FF90EF90DF9079
:10023000CF90BF900895CF93C82F60E081E00E94D7
:100240003A03C4FB662760F983E00E943A03C5FBCA
:10025000662760F984E00E943A03C6FB662760F9CE
:1002600085E00E943A036C2F661F6627661F86E0B2
:100270000E943A0361E082E00E943A038FEC97E02B
:100280000197F1F700C0000060E082E00E943A03AD
:100290008FEC97E00197F1F700C000006C2F6170C0
:1002A00083E00E943A03C1FB662760F984E00E9464
:1002B0003A03C2FB662760F985E00E943A03C3FB5C
:1002C000662760F986E00E943A0361E082E00E94BE
:1002D0003A038FEC97E00197F1F700C0000060E06F
:1002E00082E00E943A038FEC97E00197F1F700C09B
:1002F0000000CF910895CF93C82F61E081E00E9464
:100300003A03C4FB662760F983E00E943A03C5FB09
:10031000662760F984E00E943A03C6FB662760F90D
:1003200085E00E943A036C2F661F6627661F86E0F1
:100330000E943A0361E082E00E943A038FEC97E06A
:100340000197F1F700C0000060E082E00E943A03EC
:100350008FEC97E00197F1F700C000006C2F6170FF
:1003600083E00E943A03C1FB662760F984E00E94A3
:100370003A03C2FB662760F985E00E943A03C3FB9B
:10038000662760F986E00E943A0361E082E00E94FD
:100390003A038FEC97E00197F1F700C0000060E0AE
:1003A00082E00E943A038FEC97E00197F1F700C0DA
:1003B0000000CF9108952FEF89EF90E02150804009
:1003C0009040E1F700C0000082E00E941B0188E23B
:1003D0000E941B018CE00E941B0181E00E941B0116
:1003E0008FEC97E00197F1F700C0000086E00E94D3
:1003F0001B0108950F931F93CF93DF938C01C0E0EF
:10040000D0E003C00E947B012196F801EC0FFD1F94
:1004100080818111F7CFDF91CF911F910F910895C6
:10042000811105C0862F80680E941B0108958130CC
:1004300021F4862F806C0E941B0108950E942A03DC
:100440000E94DB010E94BF0062E080E00E94AE04D7
:100450000E9450000E948E00FDCF982F9695969591
:1004600096958770613009F455C020F0623009F428
:10047000A1C008959130C1F028F0923039F1933045
:10048000B9F108954AB321E030E0B90102C0660F26
:10049000771F8A95E2F7CB01942F982B9ABB9BB3D9
:1004A000809589238BBB089547B321E030E0B901E3
:1004B00002C0660F771F8A95E2F7CB01942F982B25
:1004C00097BB98B38095892388BB089544B321E0F6
:1004D00030E0B90102C0660F771F8A95E2F7CB01C1
:1004E000942F982B94BB95B38095892385BB089551
:1004F00041B321E030E0B90102C0660F771F8A9551
:10050000E2F7CB01942F982B91BB92B3809589236E
:1005100082BB08959130C1F028F0923039F19330C8
:10052000B9F108954AB321E030E0B90102C0660F85
:10053000771F8A95E2F7CB018095942F98239ABB79
:100540009BB389238BBB089547B321E030E0B90109
:1005500002C0660F771F8A95E2F7CB018095942F32
:10056000982397BB98B3892388BB089544B321E0AF
:1005700030E0B90102C0660F771F8A95E2F7CB0120
:100580008095942F982394BB95B3892385BB0895B8
:1005900041B321E030E0B90102C0660F771F8A95B0
:1005A000E2F7CB018095942F982391BB92B38923D6
:1005B00082BB08959130C1F028F0923039F1933028
:1005C000B9F108954AB321E030E0B90102C0660FE5
:1005D000771F8A95E2F7CB01962F909594239ABBCB
:1005E0009BB3892B8BBB089547B321E030E0B90161
:1005F00002C0660F771F8A95E2F7CB01962F909580
:10060000942397BB98B3892B88BB089544B321E00A
:1006100030E0B90102C0660F771F8A95E2F7CB017F
:10062000962F9095942394BB95B3892B85BB089501
:1006300041B321E030E0B90102C0660F771F8A950F
:10064000E2F7CB01962F9095942391BB92B3892B1F
:1006500082BB0895CF93C0E009C0EC2FF0E0E256D2
:10066000FF4F60818C2F0E942D02CF5FC032A8F314
:10067000CF910895982F96959695969587706130AD
:10068000E1F5913099F028F09230E9F0933041F1A2
:1006900008954BB321E030E0B90102C0660F771F27
:1006A0008A95E2F7CB01842B8BBB089548B321E0F8
:1006B00030E0B90102C0660F771F8A95E2F7CB01DF
:1006C000842B88BB089545B321E030E0B90102C016
:1006D000660F771F8A95E2F7CB01842B85BB0895BF
:1006E00042B321E030E0B90102C0660F771F8A955E
:1006F000E2F7CB01842B82BB089561113FC091309A
:10070000A1F028F09230F9F0933059F108954BB3ED
:1007100021E030E0B90102C0660F771F8A95E2F749
:10072000CB01809584238BBB089548B321E030E052
:10073000B90102C0660F771F8A95E2F7CB01809559
:10074000842388BB089545B321E030E0B90102C09D
:10075000660F771F8A95E2F7CB018095842385BBCE
:10076000089542B321E030E0B90102C0660F771F5F
:100770008A95E2F7CB018095842382BB0895982F58
:10078000969596959695482F4770913081F028F070
:100790009230B9F09330F9F028C099B3892F90E0E6
:1007A00002C0959587954A95E2F78170089526B322
:1007B00030E0C90102C0959587954A95E2F78170AE
:1007C000089523B330E0C90102C0959587954A95F5
:1007D000E2F78170089520B330E0C90102C0959519
:1007E00087954A95E2F78170089580E00895E82F93
:1007F000F0E0EE0FFF1FE852FF4F71836083089512
:100800001F920F920FB60F9211242F933F934F9385
:100810005F936F937F938F939F93AF93BF93EF9368
:10082000FF93E091D800F091D900309709F0099535
:10083000FF91EF91BF91AF919F918F917F916F91B8
:100840005F914F913F912F910F900FBE0F901F908E
:1008500018951F920F920FB60F9211242F933F936A
:100860004F935F936F937F938F939F93AF93BF93B8
:10087000EF93FF93E091DA00F091DB00309709F0FD
:100880000995FF91EF91BF91AF919F918F917F91CA
:100890006F915F914F913F912F910F900FBE0F90ED
:1008A0001F9018951F920F920FB60F9211242F933D
:1008B0003F934F935F936F937F938F939F93AF93E8
:1008C000BF93EF93FF93E091DC00F091DD00309750
:1008D00009F00995FF91EF91BF91AF919F918F9191
:1008E0007F916F915F914F913F912F910F900FBE2C
:1008F0000F901F901895813069F028F0823089F0B0
:100900008330B1F01BC083B78F7B83BF83B7877FF2
:1009100083BF14C083B7806483BF83B7877F83BFDF
:100920000DC083B78F7B83BF83B7886083BF06C04A
:1009300083B7806483BF83B7886083BF83B7887FB2
:1009400083BF83B7682B63BF0895813330F493B7B7
:100950009F7C93BF93B7892B83BF0895823039F171
:1009600028F4882351F08130A9F054C08430C9F1B3
:1009700058F1853009F442C04DC08FB58E7F8FBDD0
:100980008FB58D7F8FBD8EB5877F8EBD8EB58F7EE7
:100990008EBD40C08FB58E7F8FBD8FB58D7F8FBDD3
:1009A0008EB588608EBD8EB580618EBD33C08FB52B
:1009B0008E7F8FBD8FB58D7F8FBD8EB588608EBDCC
:1009C0008EB58F7E8EBD26C08FB581608FBD8FB5F1
:1009D0008D7F8FBD8EB588608EBD8EB58F7E8EBDAE
:1009E00019C08FB58E7F8FBD8FB582608FBD8EB5DC
:1009F00088608EBD8EB580618EBD0CC08FB5816064
:100A00008FBD8FB582608FBD8EB588608EBD8EB56F
:100A100080618EBD8EB5887F8EBD8EB5682B6EBD14
:100A200008959FB59F739FBD9FB5892B8FBD089576
:100A30009FB59F7C9FBD9FB5892B8FBD08951F9249
:100A40000F920FB60F9211242F933F934F935F9302
:100A50006F937F938F939F93AF93BF93EF93FF9386
:100A6000E091DE00F091DF00309709F00995FF91E9
:100A7000EF91BF91AF919F918F917F916F915F9116
:100A80004F913F912F910F900FBE0F901F9018958F
:100A90001F920F920FB60F9211242F933F934F93F3
:100AA0005F936F937F938F939F93AF93BF93EF93D6
:100AB000FF93E091E000F091E100309709F0099593
:100AC000FF91EF91BF91AF919F918F917F916F9126
:100AD0005F914F913F912F910F900FBE0F901F90FC
:100AE00018951F920F920FB60F9211242F933F93D8
:100AF0004F935F936F937F938F939F93AF93BF9326
:100B0000EF93FF93E091E200F091E300309709F05A
:100B10000995FF91EF91BF91AF919F918F917F9137
:100B20006F915F914F913F912F910F900FBE0F905A
:100B30001F9018951F920F920FB60F9211242F93AA
:100B40003F934F935F936F937F938F939F93AF9355
:100B5000BF93EF93FF93E091E400F091E5003097AD
:100B600009F00995FF91EF91BF91AF919F918F91FE
:100B70007F916F915F914F913F912F910F900FBE99
:100B80000F901F90189580958CBF08952FEF30E03F
:100B9000281B390B3BBD2ABD08952FEF30E0281BE1
:0C0BA000390B39BD28BD0895F894FFCF33
:100BAC00636F6C6F72732066726F6D20312D3135EF
:100BBC0000FFFFFFFF000000FF000000FF00FFFF31
:100BCC00FFFF00FF00FF32643232323214327823DE
:100BDC0028195A005A8A2BE219964B000000010082
:100BEC0000000000000100000000000000000000F8
:100BFC000000000000000000020200000100373875
:100C0C003941343536423132334363303D440C0D77
:060C1C000E0F1A1B1C1D47
:00000001FF
